:100000000C9440080C9461080C9461080C946108ED
:100010000C9461080C9461080C9461080C946108BC
:100020000C9461080C9461080C9461080C946108AC
:100030000C9461080C9461080C9461080C9461089C
:100040000C9461080C9461080C9461080C9461088C
:100050000C9461080C94E8140C9461080C946108E9
:100060000C9461080C94BD0A0C9461080C94820AEB
:100070000C9461080C94EB1D0C9461080C946108BD
:100080000C9461080C9461080C9461080C9461084C
:100090000C9479100C9461080C9461080C9461081C
:1000A0000C9461080C9461080C9461080C9461082C
:1000B0000C9461080C9461080C9461080C9461081C
:1000C0000C9461080C9461080C9461080D0A000DF1
:1000D0000A2D2D2D2D2D2D2D2D2D2D2D2D2D2D2D73
:1000E0002D2D2D2D2D2D2D2D2D2D2D2D2D2D2D006D
:1000F0000D0A466F6C6C6F77204D650D0A536F6665
:1001000074776172653A5625642E25642563200054
:100110000D0A0D0A48573A20466F6C6C6F772D4DCB
:100120006500416E616C6F675F436830202020205E
:100130002020416E616C6F675F4368312020202072
:100140002020416E616C6F675F4368322020202061
:100150002020416E616C6F675F4368332020202050
:100160002020416E616C6F675F436834202020203F
:100170002020416E616C6F675F436835202020202E
:100180002020416E616C6F675F436836202020201D
:100190002020416E616C6F675F436837202020200C
:1001A0002020554261742020202020202020202063
:1001B00020205379735374617465202020202020FF
:1001C00020204465627567313020202020202020C7
:1001D00020204465627567313120202020202020B6
:1001E00020204465627567313220202020202020A5
:1001F0002020446562756731332020202020202094
:100200002020446562756731342020202020202082
:100210002020446562756731352020202020202071
:1002200020205A656C6C656E7A61686C20202020F5
:100230002020506F7765724F6E20202020202020D4
:10024000202044656275673138202020202020203E
:10025000202044656275673139202020202020202D
:100260002020446562756732302020202020202025
:100270002020446562756732312020202020202014
:100280002020446562756732322020202020202003
:1002900020204465627567323320202020202020F2
:1002A00020204465627567323420202020202020E1
:1002B00020204465627567323520202020202020D0
:1002C00020204465627567323620202020202020BF
:1002D00020204465627567323720202020202020AE
:1002E000202044656275673238202020202020209D
:1002F000202044656275673239202020202020208C
:100300002020446562756733302020202020202083
:100310002020446562756733312020202020202072
:1003200020200D0A20554152543020696E69742EE8
:100330002E2E6F6B006F6B000D0A20554152543109
:1003400020696E69742E2E2E0054696D653A202541
:100350003032693A253032693A253032692E2530FB
:10036000336900446174653A20253032692F2530A5
:1003700032692F25303469002020202020202020C1
:10038000202020202020202020202020002020208D
:10039000202020202020202020202020202020205D
:1003A000200020204E6F2074696D652064617461A7
:1003B000212020202020002020202020202020205C
:1003C00020202020202020202020200047505320C3
:1003D0005554432054696D6500537065656420541D
:1003E0003A20252B346420636D2F730053706565AC
:1003F0006420453A20252B346420636D2F7300530D
:1004000070656564204E3A20252B346420636D2F7F
:100410007300536174733A25303264204669783A28
:100420003F3F202000536174733A253032642046E8
:1004300069783A3344202000536174733A2530328E
:1004400064204669783A3244202000536174733A3C
:1004500025303264204669783A4E6F6E65005370DD
:1004600065656420543A2020202020202020202070
:10047000202000537065656420453A20202020200C
:1004800020202020202020005370656564204E3AF3
:10049000202020202020202020202020004E6F20FF
:1004A000475053206461746100416C743A202563A5
:1004B000253034642E252E303364206D004C617459
:1004C0003A20256325642E252E3364252E3364209F
:1004D000646567004C6F6E3A20256325642E252ED7
:1004E0003364252E33642064656700536174733A66
:1004F00025303264204669783A3F3F20200053611E
:1005000074733A25303264204669783A33442020A7
:1005100000536174733A25303264204669783A3268
:1005200044202000536174733A25303264204669B8
:10053000783A4E6F6E6500416C743A20202020207E
:100540002020202020202020202020004C61743AF0
:10055000202020202020202020202020202020209B
:10056000004C6F6E3A2020202020202020202020C8
:100570002020202020004E6F2047505320646174BB
:100580006100202020202020202020200053573AE6
:100590002025642E256425630048573A20466F6C59
:1005A0006C6F772D4D65002B20466F6C6C6F77203C
:1005B0004D65202B005B25695D005B25695D006F43
:1005C0006B000D0A2055425820696E69742E2E2E3C
:1005D000006F6B000D0A2041444320696E69742E40
:1005E0002E2E006F6B000D0A20425554544F4E20A2
:1005F000696E69742E2E2E00000021104220633097
:100600008440A550C660E770088129914AA16BB16A
:100610008CC1ADD1CEE1EFF1311210027332522212
:10062000B5529442F772D662399318837BB35AA3BA
:10063000BDD39CC3FFF3DEE36224433420040114E2
:10064000E664C774A44485546AA54BB5288509950A
:10065000EEE5CFF5ACC58DD55336722611163006B2
:10066000D776F6669556B4465BB77AA7199738875A
:10067000DFF7FEE79DD7BCC7C448E5588668A77872
:100680004008611802282338CCC9EDD98EE9AFF9AA
:10069000488969990AA92BB9F55AD44AB77A966A52
:1006A000711A500A333A122AFDDBDCCBBFFB9EEBFA
:1006B000799B588B3BBB1AABA66C877CE44CC55C22
:1006C000222C033C600C411CAEED8FFDECCDCDDD4A
:1006D0002AAD0BBD688D499D977EB66ED55EF44EF2
:1006E000133E322E511E700E9FFFBEEFDDDFFCCF9A
:1006F0001BBF3AAF599F788F8891A981CAB1EBA1EE
:100700000CD12DC14EF16FE18010A100C230E32069
:100710000450254046706760B9839893FBA3DAB311
:100720003DC31CD37FE35EF3B1029012F322D232B9
:100730003542145277625672EAB5CBA5A8958985E1
:100740006EF54FE52CD50DC5E234C324A014810409
:100750006674476424540544DBA7FAB79987B897B1
:100760005FE77EF71DC73CD7D326F2369106B01659
:1007700057667676154634564CD96DC90EF92FE971
:10078000C899E9898AB9ABA94458654806782768A9
:10079000C018E1088238A3287DCB5CDB3FEB1EFB51
:1007A000F98BD89BBBAB9ABB754A545A376A167AF9
:1007B000F10AD01AB32A923A2EFD0FED6CDD4DCD21
:1007C000AABD8BADE89DC98D267C076C645C454C49
:1007D000A23C832CE01CC10C1FEF3EFF5DCF7CDFF1
:1007E0009BAFBABFD98FF89F176E367E554E745E99
:1007F000932EB23ED10EF01E4572726F72202530DC
:1008000032582077726974696E6720646174612060
:10081000746F20736420636172642028523D253018
:100820003258292E0D0A006F6B000D0A20534443E5
:10083000206465696E69742E2E2E004E6F20436110
:10084000726420696E20536C6F742E000D0A202094
:100850004361706163697479203D202569204D42B0
:10086000000D0A202053442D434152442056322E7D
:1008700030206F72206C61746572000D0A20205365
:10088000442D434152442056312E78006F6B0D0A9F
:10089000004572726F722072656164696E672043F1
:1008A00053442E004572726F722072656164696EE6
:1008B00067204349442E0D0A004572726F722073FF
:1008C000657474696E6720626C6F636B206C656E13
:1008D00067746820746F203531322E00496E697458
:1008E000206572726F722E00496E69742074696D92
:1008F000656F75742E004261642041636D6434310C
:100900002052313D253032582E00436172642069F7
:100910007320696E636F6D70617469626C652074B9
:100920006F20332E33562E004E6F7420616E20538D
:10093000442D434152442E0042616420636D64356E
:100940003820523120253032782E004361726420E5
:10095000697320696E636F6D70617469626C652084
:10096000746F20332E33562E0D0A004261642063CB
:100970006D643820523720636865636B2070617442
:100980007465726E2E0D0A0042616420636D6438D6
:100990002052313D253032582E0072657365742027
:1009A00074696D656F7574000D0A205344432069A6
:1009B0006E69742E2E2E006F6B000D0A2053534368
:1009C00020696E69742E2E2E0020204D616E756692
:1009D00061632E20446174653A2025692F25690DD5
:1009E0000A0D0A000D0A00253032580020205365F8
:1009F0007269616C204E6F2E3A2000202050726F79
:100A000064756374205265762E3A2025692E256917
:100A10000D0A00202050726F64756374204E616D62
:100A2000653A2025730D0A0020204170706C6963BF
:100A30006174696F6E2049443A2025730D0A000DD8
:100A40000A20204D616E756661637475726572204F
:100A500049443A2025690D0A004572726F722025BB
:100A60003032582072656164696E67206461746118
:100A70002066726F6D207364206361726420285257
:100A8000313D25303258292E0D0A00202E2E2E6F92
:100A90006B005642523A20506172746974696F6EED
:100AA00020697374206E6F7420464154313620746F
:100AB0007970652E005642523A20426164206E756C
:100AC0006D626572206F6620736563746F72732E3A
:100AD000005642523A20536563746F722073697AEC
:100AE00065206E6F7420737570706F727465642EFC
:100AF000004572726F722072656164696E6720745E
:100B00006865205642522E004572726F72207265DF
:100B10006164696E6720746865204D42522E0053EF
:100B2000442D4361726420636F756C64206E6F7432
:100B300020626520696E697469616C697A65642EEA
:100B4000000D0A20464154313620696E69742E2EFC
:100B50002E005573696E672064656661756C74203C
:100B600076616C756573210044656661756C7420EF
:100B700073657474696E67732066696C652063724F
:100B8000656174656421004552524F523A204372A8
:100B9000656174696E672064656661756C74207345
:100BA000657474696E67732066696C6521006F6B8C
:100BB000004552524F523A204F70656E696E672061
:100BC00073657474696E67732066696C6521000DC6
:100BD0000A2053657474696E677320696E69742E98
:100BE0002E2E000D0A2573203C2D2D20756E6B6E68
:100BF0006F776E20706172616D657465720D0A00A9
:100C00000D0A2573203C2D2D202564206973206F4B
:100C10007574206F662072616E6765205B25642E97
:100C20002E2E25645D000D0A4572726F7220636C72
:100C30006F73696E67206770782D66696C650D0A41
:100C4000000D0A436C6F73696E67206770782D66BC
:100C5000696C650D0A000D0A4572726F72206C6F27
:100C60006767696E6720746F206770782D66696C9E
:100C7000650D0A000D0A4572726F72206765747403
:100C8000696E672066726565206770782D66696C8D
:100C900065206E616D650D0A000D0A4572726F72F6
:100CA000206F70656E696E67206770782D66696C5D
:100CB000653A2025730D0A000D0A4F70656E696E46
:100CC00067206770782D66696C653A2025730D0A78
:100CD000000D0A4572726F7220636C6F73696E67E4
:100CE000206B6D6C2D66696C650D0A000D0A436CF6
:100CF0006F73696E67206B6D6C2D66696C650D0A8C
:100D0000000D0A4572726F72206C6F6767696E67BB
:100D100020746F206B6D6C2D66696C650D0A000D7B
:100D20000A4572726F722067657474696E67206617
:100D3000726565206B6D6C2D66696C65206E616DEA
:100D4000650D0A000D0A4572726F72206F70656E34
:100D5000696E67206B6D6C2D66696C653A20257332
:100D60000D0A000D0A4F70656E696E67206B6D6C21
:100D70002D66696C653A2025730D0A003C3F786D3D
:100D80006C2076657273696F6E3D22312E302220A1
:100D9000656E636F64696E673D225554462D382237
:100DA0003F3E0D0A3C6B6D6C20786D6C6E733D227E
:100DB000687474703A2F2F65617274682E676F6F54
:100DC000676C652E636F6D2F6B6D6C2F322E322228
:100DD0003E0D0A3C446F63756D656E743E0D0A3CB2
:100DE0006E616D653E4D696B726F6B6F707465728D
:100DF00020475053206C6F6767696E673C2F6E61A8
:100E00006D653E0D0A0D0A3C5374796C652069646A
:100E10003D22464D5F6770732D7374796C65223E79
:100E20000D0A3C4C696E655374796C653E0D0A3C45
:100E3000636F6C6F723E66663030666630303C2F92
:100E4000636F6C6F723E0D0A3C77696474683E3262
:100E50003C2F77696474683E0D0A3C2F4C696E65BF
:100E60005374796C653E0D0A3C2F5374796C653E62
:100E70000D0A003C2F446F63756D656E743E0D0A5C
:100E80003C2F6B6D6C3E0D0A003C506C6163656DD0
:100E900061726B3E0D0A3C6E616D653E466F6C6C17
:100EA0006F774D653C2F6E616D653E0D0A3C737426
:100EB000796C6555726C3E23464D5F6770732D7378
:100EC00074796C653C2F7374796C6555726C3E0D4A
:100ED0000A003C2F506C6163656D61726B3E0D0AB8
:100EE000003C4C696E65537472696E673E0D0A3C36
:100EF00074657373656C6C6174653E313C2F746509
:100F00007373656C6C6174653E0D0A3C616C746949
:100F1000747564654D6F64653E72656C6174697665
:100F200065546F47726F756E643C2F616C746974A1
:100F30007564654D6F64653E0D0A3C636F6F726446
:100F4000696E617465733E0D0A000D0A3C2F636F74
:100F50006F7264696E617465733E0D0A3C2F4C6953
:100F60006E65537472696E673E0D0A003C3F786D82
:100F70006C2076657273696F6E3D22312E302220AF
:100F8000656E636F64696E673D225554462D382245
:100F9000207374616E64616C6F6E653D226E6F22AA
:100FA000203F3E0D0A3C6770782063726561746F64
:100FB000723D22466F6C6C6F774D652220766572AC
:100FC00073696F6E3D22312E3022203E0D0A0D0ACC
:100FD0003C6D657461646174613E0D0A3C6C696EC0
:100FE0006B20687265663D22687474703A2F2F77A3
:100FF00077772E6D696B726F6B6F707465722E648C
:1010000065223E0D0A3C746578743E4D696B726FC3
:101010004B6F707465723C2F746578743E0D0A3C9A
:101020002F6C696E6B3E0D0A3C2F6D6574616461B7
:1010300074613E0D0A0D0A003C2F6770783E0D0A60
:10104000003C74726B3E0D0A3C6E616D653E466FEE
:101050006C6C6F774D653C2F6E616D653E0D0A00BF
:101060003C2F74726B3E0D0A003C74726B736567A3
:101070003E0D0A003C2F74726B7365673E0D0A00CB
:1010800011241FBECFEFD1E2DEBFCDBF00E00CBF09
:1010900014E0A0E0B2E0E8E2F5E900E00BBF02C036
:1010A00007900D92AE39B107D9F712E1AEE9B4E07D
:1010B00001C01D92AB34B107E1F70E9463080C94A4
:1010C000924A0C9400002F923F924F925F926F923F
:1010D0007F928F929F92AF92BF92CF92DF92EF92C8
:1010E000FF920F931F93CF93DF9384B7877F84BFC3
:1010F00080916000886180936000109260000E947F
:10110000A11928980E94C1140E94ED0F0E94CC1DC5
:101110000E94A5100E949C1E0E94001F78940E94AD
:1011200032360E94B3390E94BD3E289A299800D0D9
:10113000ADB7BEB711961C92119780E191E013965E
:101140009C938E9312970E94891100D000D0EDB726
:10115000FEB73196ADB7BEB711961C9280EF90E006
:10116000928381831482138281E090E09683858349
:1011700088E690E0908787830E948911EDB7FEB7DB
:1011800036960FB6F894FEBF0FBEEDBF11828FECFE
:1011900090E0938382830E948911ADB7BEB7119608
:1011A0001C9211978CEC90E013969C938E9312975F
:1011B0000E9489110F900F900F900E945B1588EE8E
:1011C00093E00E9432159093AA048093A904CBED7A
:1011D000D6E008ECE02EF12C12E0712EB2E0AB2E3E
:1011E000B12CA1E0CA2ED12C01E0FCE36F2E812CA2
:1011F000E3E09E2E70E7272E77E1372E63E0462E40
:10120000512C0E94771C0E94BD370E94E23E0E9432
:10121000D21E882309F0F4C02091A8042093DB0695
:101220001982213009F4FAC0223009F42EC100934A
:10123000A8048091C002882309F4D6C08091AC0B29
:101240009091AD0B9093CA068093C9068091AA0B2A
:101250009091AB0B9093CC068093CB068091A00B22
:101260009091A10B9093CE068093CD068091A20B16
:101270009091A30B9093D0068093CF068091A80BFA
:101280009091A90B9093D2068093D10680919E0BEA
:1012900090919F0B9093D4068093D3068091A40BDA
:1012A0009091A50B9093D6068093D5068091A60BBE
:1012B0009091A70B9093D8068093D7068091A80BA6
:1012C0009091A90B002496958795079496958795FC
:1012D0000794982F802D60E771E00E94D2462091FC
:1012E000000230910102C901880F991F820F931FDC
:1012F000680F791F769567957695679570930102CB
:10130000609300027093DA066093D906E091A0041E
:10131000F091A104E436F1057CF4653571050CF01B
:10132000CDC0B0929F04A0929E04CF0101969093ED
:10133000A1048093A004FC0120919E0430919F049D
:101340003093EA062093E906F093EC06E093EB066F
:101350004091A2045091A304421753070CF062C0BD
:10136000E436F1050CF45EC08091C5049091C6048A
:10137000892B09F057C08091A4049091A504B3E093
:10138000893E9B070CF452C084E690E09093C6041B
:101390008093C5044F5F5F4F5093A3044093A20412
:1013A00081E090E09093A5048093A404220F331F62
:1013B00022953295307F3227207F322762177307BC
:1013C000E4F16A347105CCF18091A6049091A704F0
:1013D0008D7F9093A7048093A6041092C002809101
:1013E0007A00886C80937A000E94150C0E94B50DDB
:1013F0008091A6049091A704892B91F0289801CFA1
:10140000F092C604E092C5042091A804213081F135
:101410000093A804D092DC06C092DB06299809CF7D
:10142000289AEFCE8091A4049091A504A5E08C3D6C
:101430009A070CF0BBCF0196B5CFE436F10524F244
:1014400090920602809205028091C5049091C60494
:10145000892B21F43092C6042092C5048091A60401
:101460009091A70482609093A7048093A604B5CFBF
:101470008091A6049091A704892B09F0CFCE709299
:10148000A804B092DC06A092DB068091A90490919A
:10149000AA040E943C15882309F4CBCE10919E0625
:1014A000113089F08AEF90E00E9432159093AA04DF
:1014B0008093A90485B1872585B9BBCE50929F043E
:1014C00040929E0432CF88EE93E00E9432159093B2
:1014D000AA048093A9041092A00610929F0610936C
:1014E000A1066092A2061092A3061093A406109281
:1014F000A5061092A6061092A7061092A8061093B1
:10150000B004D8CF1F920F920FB60F920BB60F9266
:1015100011248F939F93EF93FF938091030288236D
:10152000A9F48091C1049091C20401969093C204E1
:101530008093C104FC01E75FF84FE081ED30A9F032
:101540008639910591F0E093C60004C01092C20460
:101550001092C104FF91EF919F918F910F900BBE5C
:101560000F900FBE0F901F9018951092C20410920A
:10157000C10481E080930302E6CF1F920F920FB661
:101580000F920BB60F9211242F933F934F935F93BB
:101590006F938F939F93AF93BF93CF93DF93EF930B
:1015A000FF936091C6008091B304882351F4309179
:1015B000BE043323D1F03639D8F01092BE04109215
:1015C000B304FF91EF91DF91CF91BF91AF919F91C4
:1015D0008F916F915F914F913F912F910F900BBE23
:1015E0000F900FBE0F901F901895633209F43FC003
:1015F0006D3099F0E32FF0E0E450FA4F60833F5FE5
:101600003093BE048091BF049091C004860F911D59
:101610009093C0048093BF04D4CFA32FB0E0FD010A
:10162000E650FA4F9081ED01C550DA4F8881409124
:10163000BF045091C004491B5109481B51095F70F8
:101640005093C0044093BF042081CA010024880F36
:10165000991F001C880F991F001C892F902D835CF7
:10166000281789F01092B3041092BE04AACF609399
:10167000FC0581E08093BE0483E290E09093C00477
:101680008093BF049ECF9881842F8F73835C9817BB
:1016900049F7A450BA4F6C933F5F3093B40481E094
:1016A0008093B3048091FE058235F1F62CE088E149
:1016B00090E00FB6F894A895809360000FBE209339
:1016C0006000D2CFCF93DF93BC010097A9F120E057
:1016D00030E040E050E0FA01E75FF84F8081280FEA
:1016E000311D4F5F5F4F46175707A8F33F70C90181
:1016F0000024880F991F001C880F991F001C892F38
:10170000902D835CDB0111962F73235CED012196F4
:10171000FB01E75FF84F8083A75FB84F2C93C75F4B
:10172000D84F8DE08883109203028091090780933F
:10173000C600DF91CF910895E0E0F0E08DE3A1E0F5
:10174000B0E02DE3C2E0D0E0E4CF5091B4045650B5
:1017500009F457C033E043E01EC0972F9D53F0E0DB
:101760002295207F892F86958695282BE450FA4F65
:101770002083E42FEE5F5230C1F15350F0E0929598
:10178000990F990F907C6D53962BE450FA4F9083EC
:101790004D5F5523A1F1E32FF0E0E450FA4F808133
:1017A0003F5FE32FF0E0E450FA4F20812D533F5F7D
:1017B000E32FF0E0E450FA4F70813F5FE32FF0E059
:1017C000E450FA4F60813F5F922F92959F708D5346
:1017D000880F880F892BE42FF0E0E450FA4F8083C4
:1017E000E42FEF5F513009F0B8CFE3508FEF95E071
:1017F0009093B6048093B504E093B7040895E42F62
:10180000F4CFE0E0F3CF1F93182F8A3051F080918E
:10181000C00085FFFCCF1093C60080E090E01F91D0
:1018200008958DE00E94030CF2CF8091B3048823C9
:1018300009F408950E94A50B8091FD058B3611F4E3
:101840008091FE058091FE05873609F467C08836D1
:10185000D8F08C3651F1863721F18836C9F48FEFF4
:1018600080930402E091B504F091B604808187FD75
:1018700059C082E08093B1041092BD041092BC0460
:1018800081E08093AC0404C08136C1F18436D9F084
:101890001092B6041092B5041092B7041092B304DB
:1018A000089581E08093AB04F3CF8FEF809304021F
:1018B000E091B504F091B60480818093C80481E082
:1018C0008093AD04E5CFE091B504F091B60480813A
:1018D0002AE0829FC00111249093BB048093BA0434
:1018E000892B19F081E08093AF0480EA9FE00E9489
:1018F00032159093B9048093B804CACFE091B5042F
:10190000F091B604808180930202803218F08FE15A
:10191000809302028FEF80930402BACF81E080931C
:10192000AE04B6CF908190958091B204892B8093BC
:10193000B20481812AE0829FC00111249093BD04EA
:101940008093BC0484E08093B10480EA9FE00E940D
:1019500032159093B9048093B80492CFBF92CF927E
:10196000DF92EF92FF920F931F93DF93CF93CDB748
:10197000DEB78E852F8593E2909309078F59809368
:101980000A078D8580930B07222379F463E070E0CA
:10199000CB010E94620BCF91DF911F910F91FF90BD
:1019A000EF90DF90CF90BF900895E888F98804E128
:1019B000C02ED12CCC0EDD1E4A895B894115510504
:1019C00029F3022F015063E070E010E062C0A12F04
:1019D000B0E01F5FFA01AE0DBF1D8C91AF01415009
:1019E000504009F48BC0E12FF0E01F5FEE0DFF1DAA
:1019F000A0814150504009F06DC0002309F46AC035
:101A000096012E5F3F4FF601E080F18012E0C12E7B
:101A1000D12CC20ED31EF901408151810150382FC3
:101A200032953F7090E08F7090702A2F2295269506
:101A300026952370880F991F880F991F282B235CE8
:101A4000AF73A35C10E08B2D86958695835CFB01BC
:101A5000E75FF84F80838B2D90E0837090708295C4
:101A60009295907F9827807F9827382B335CFB01D5
:101A7000E65FF84F3083FB01E55FF84F2083FB0101
:101A8000E45FF84FA0836C5F7F4F4115510509F467
:101A90007FCFF701E10FF11DB0801F5F4150504033
:101AA00009F095CF002391F0F6013296D601ED9022
:101AB000FC9012E0C12ED12CCE0EDF1E0190F081E1
:101AC000E02D0150309709F04CC010E030E02DE3DC
:101AD000ADE3B9CF382F32953F7090E08F709070A2
:101AE0002A2F2295269526952370880F991F880FF7
:101AF000991F282B235CAF73A35CA5CF002371F43F
:101B0000382F32953F7090E08F709070880F991F3A
:101B1000880F991F282F235CADE395CFF6013296ED
:101B2000D601ED90FC90A2E0CA2ED12CCE0EDF1E85
:101B30004081518101504115510521F0E0E0F0E074
:101B400011E054CF382F32953F7090E08F70907035
:101B5000880F991F880F991F282F235C10E0ADE391
:101B600072CFA0E0B0E011E036CF0F931F93DF9368
:101B7000CF93CDB7DEB760970FB6F894DEBF0FBE38
:101B8000CDBF80910302882359F460960FB6F89474
:101B9000DEBF0FBECDBFCF91DF911F910F91089592
:101BA0008091B8049091B9040E943C15882341F0BB
:101BB0001092BD041092BC041092BB041092BA049F
:101BC0008091AB04882309F0B0C08091BC0490914F
:101BD000BD04892B09F04FC18091AC04882309F41E
:101BE00050C080910302882309F44BC08091B10456
:101BF000843008F0BBC18DB79EB70B970FB6F89431
:101C00009EBF0FBE8DBFEDB7FEB7319688E4ADB76E
:101C1000BEB711968C9381E0818382E0828381EB51
:101C200094E09483838381E090E09683858388E0C9
:101C300092E09087878384E190E0928781870E9479
:101C4000AE0C8091B1048F5F8093B10481502DB7A9
:101C50003EB7255F3F4F0FB6F8943EBF0FBE2DBF76
:101C6000843010F01092B1048091BC049091BD04B6
:101C70000E9432159093C6068093C5061092AC045C
:101C800084CF8091AD04882309F07FC06091020267
:101C90006F3F09F0FAC08091AE04882309F037C184
:101CA0008091BA049091BB04892B09F08CC180917A
:101CB000AF04882309F4A9C080910302882309F4A2
:101CC000A4C08DB79EB707970FB6F8949EBF0FBEFE
:101CD0008DBFEDB7FEB7319684E4ADB7BEB71196B0
:101CE0008C938AE0818381E0828387EC96E0948301
:101CF000838382E490E0968385830E94AE0C2DB7A7
:101D00003EB7295F3F4F0FB6F8943EBF0FBE2DBFC1
:101D10008091BA049091BB040E9432159093A00761
:101D200080939F071092AF0430CF809103028823E5
:101D300009F44BCF2DB73EB7275030400FB6F8947B
:101D40003EBF0FBE2DBFEDB7FEB7319686E5ADB7EE
:101D5000BEB711968C938AE0818381E0828380EB09
:101D600096E0948383838AE090E0968385830E9443
:101D7000AE0C1092AB042DB73EB7295F3F4F0FB6A4
:101D8000F8943EBF0FBE2DBF00CF80910302882381
:101D900009F47CCF80E00E9464158DB79EB70F9741
:101DA0000FB6F8949EBF0FBE8DBFEDB7FEB731964C
:101DB0008CE4ADB7BEB711968C9381E0818383E04C
:101DC000828388EC94E09483838321E030E036833F
:101DD000258387E092E0908787833287218788E098
:101DE00092E09487838780E590E0968785870E94BC
:101DF000AE0C1092AD042DB73EB7215F3F4F0FB62A
:101E0000F8943EBF0FBE2DBFC0CE8091B004882392
:101E100009F4BBCE80910302882309F4B6CE8DB7B6
:101E20009EB707970FB6F8949EBF0FBE8DBFEDB754
:101E3000FEB7319683E7ADB7BEB711968C9312E02B
:101E4000118381E0828382E996E0948383838EE12B
:101E500090E0968385830E94AE0C10939E061092AC
:101E6000B0042DB73EB7295F3F4F0FB6F8943EBF81
:101E70000FBE2DBF8ACE8091C5069091C6060E94E6
:101E80003C15882309F0ADCEA7CE70E0629572951F
:101E9000707F7627607F76276E5D7E4F8E010F5FA5
:101EA0001F4FC80140E150E00E9454478DB79EB7D4
:101EB0000B970FB6F8949EBF0FBE8DBFEDB7FEB760
:101EC000319681E4ADB7BEB711968C938AE08183D9
:101ED00082E0828382E092E09483838381E090E0D9
:101EE000968385831087078380E190E092878187BE
:101EF0000E94AE0C8FEF809302022DB73EB7255F94
:101F00003F4F0FB6F8943EBF0FBE2DBF3ECE80911F
:101F10000302882309F4C4CE8DB79EB707970FB686
:101F2000F8949EBF0FBE8DBFEDB7FEB7319687E424
:101F3000ADB7BEB711968C938AE0818381E082832E
:101F40008AEB96E0948383838BE090E0968385838D
:101F50000E94AE0C1092AE042DB73EB7295F3F4FE2
:101F60000FB6F8943EBF0FBE2DBF0FCE8091B204C6
:101F70000E9464151092B2048DB79EB707970FB6F2
:101F8000F8949EBF0FBE8DBFEDB7FEB7319688E4C3
:101F9000ADB7BEB711968C9381E08183828388E0D0
:101FA00092E09483838380E590E0968385830E940A
:101FB000AE0C2DB73EB7295F3F4F0FB6F8943EBF2A
:101FC0000FBE2DBF51CE80919F079091A0070E9418
:101FD0003C15882309F070CE6ACE1F931FB7F89482
:101FE0008091C1008F778093C1008091C1008F7B69
:101FF0008093C100589A5098599A519A1092C500EE
:1020000080E18093C4008091C00082608093C00012
:1020100088E18093C1008091C2008F778093C200D5
:102020008091C2008F7B8093C2008091C2008F7D1F
:102030008093C2008091C2008F7E8093C200809105
:10204000C200877F8093C2008091C1008B7F809304
:10205000C1008091C20084608093C2008091C20060
:1020600082608093C2008091C00087FF06C080918B
:10207000C6008091C00087FDFACF8091C1008068C2
:102080008093C1008091C10080648093C1008091E1
:10209000BA049091BB040E9432159093A0078093DC
:1020A0009F071092B3041092B6041092B5041092D8
:1020B000B70481E0809303021092B0068093B106CA
:1020C00087E08093B4068BE08093B2061092B3064B
:1020D0001FBF789400D0EDB7FEB7118282E293E083
:1020E000938382830E9489110F900F900F901F910C
:1020F00008951F920F920FB60F920BB60F921124F4
:102100002F933F934F935F936F937F938F939F93FF
:10211000AF93BF93EF93FF936091CE0081EA97E076
:102120000E940846FF91EF91BF91AF919F918F91CF
:102130007F916F915F914F913F912F910F900BBEC7
:102140000F900FBE0F901F90189500D0EDB7FEB7FF
:10215000118288E393E0938382830E9489110F9018
:102160000F900F9081EA97E06BEA77E047EE53E03B
:102170000E94FB459FB7F8948091C9008F778093A8
:10218000C9008091C9008F7B8093C9008091C900EC
:102190008F7D8093C9005A9A52985B9A539A1092F5
:1021A000CD0089E18093CC008091C800826080934B
:1021B000C80088E18093C9008091CA008F7780931E
:1021C000CA008091CA008F7B8093CA008091CA00A8
:1021D0008F7D8093CA008091CA008F7E8093CA0051
:1021E0008091CA00877F8093CA008091C9008B7F4D
:1021F0008093C9008091CA0084608093CA00809156
:10220000CA0082608093CA008091C80087FF06C020
:102210008091CE008091C80087FDFACF8091C900DF
:1022200080688093C9008091C90080648093C90050
:102230009FBF789400D0EDB7FEB7118285E393E09D
:10224000938382830E9489110F900F900F900895BD
:10225000982F8091930B813021F0892F0E94030CDD
:1022600008958091C904E82FF0E0E85FFD4F908366
:102270008F5F8093C90481E008951F93182F18166B
:1022800034F480E30E94281111501116D4F31F91E9
:1022900008951F93182F181634F480E20E94281115
:1022A00011501116D4F31F910895EF92FF920F93DE
:1022B0001F93CF93DF937C018B016115710569F04A
:1022C000C0E0D0E0F701EC0FFD1FE4918E2F0E94DB
:1022D00028112196C017D107A9F7DF91CF911F913F
:1022E0000F91FF90EF9008950F931F93CF93DF937B
:1022F0008C01EB016115710539F0F80181918F01B5
:102300000E9428112197C9F7DF91CF911F910F915A
:1023100008952F923F924F925F926F927F928F9289
:102320009F92AF92BF92CF92DF92EF92FF920F9364
:102330001F93DF93CF93CDB7DEB7EA970FB6F8942C
:10234000DEBF0FBECDBF62962FAD629763963FADE5
:10235000639761968FAD61978093930B43E5A42EAD
:10236000B12CAC0EBD1EC9018C016624772443013B
:102370009E01245D3F4F3AAF29AFF801F490FF2052
:10238000A9F0F5E2FF1691F0680103C0F5E2FF162F
:1023900039F00894C11CD11CF601F490FF20B1F76C
:1023A000B601601B710B09F075C08601FF2009F4AE
:1023B00095C20F5F1F4F1982EE24552444244A947E
:1023C000F8010F5F1F4FF490AE2DB0E0A170B07018
:1023D00025E7F21609F446C08F2D8062883709F48C
:1023E00041C06501F0E2FF1609F44DC023E2F21688
:1023F00009F495C04AE2F41609F495C05DE2F516B9
:1024000009F4A0C0FBE2FF1609F441C02EE2F21667
:1024100009F444C0E0E3FE1609F496C08F2D815301
:10242000893008F097C020E030E0C901880F991F7B
:10243000880F991F880F991F220F331F280F391FEC
:102440002F0D311D20533040F8010F5F1F4FF490C6
:102450008F2D80538A3048F3522E560125E7F2160D
:1024600009F0BACF109709F445C094E0C92ED12CD9
:10247000CA0CDB1CF5016080718082809380F0E2E1
:10248000FF1609F0B3CF8981882309F046C0F9828D
:10249000560196CFC8010E94551187CFF8010F5FF2
:1024A0001F4F94919A3209F45FC0892F80538A306C
:1024B00080F5692F20E030E0C901880F991F880F4F
:1024C000991F880F991F220F331F280F391F260FBE
:1024D000311D20533040F8010F5F1F4F6491862F4C
:1024E00080538A3048F3A90137FD10C0442EF62EE0
:1024F0005601B4CF82E0C82ED12CCA0CDB1CF501EA
:10250000808191813C01882499246CCF4FEF5FEF4B
:10251000EDCFF92E44245601A1CF560151CF38E01A
:10252000E32A56014DCFA2E0AA2EB12CAC0CBD1C63
:10253000D6015C9057FE44CF5194B0E1EB2AEFED09
:10254000EE223ECF5601F9CFE4FCE7CFF0E2EF2ACE
:10255000560136CF28E6F216B9F04CE6F416C1F46F
:1025600051E0E52A56012CCFF2E0AF2EB12CAC0C95
:10257000BD1CD6014D915C9157FD02C0442E20CF69
:102580004FEF5FEF442E1CCF34E0E32A560118CF03
:102590008F2DF60193E6F91609F405C1843409F488
:1025A00072C0843609F471C0893609F46EC08F3464
:1025B00009F47AC18F3609F474C1803709F479C1FE
:1025C000B3E7FB1609F430C155E5F51609F4D4C19B
:1025D00085E7F81609F4CCC1E8E5FE1609F4F8C061
:1025E000F8E7FF1609F4F4C0FF2009F477C1FC8274
:1025F00019822E2D30E03DAB2CAB5601EE2434E099
:10260000232E312C2C0E3D1E81E091E0E0E021E0F4
:10261000C22ED12C2981222381F18F5F482E4E0EAC
:102620008CA99DA98073907098AF8FAB892B29F4EA
:10263000852D84190E94491129812223B9F49CA96E
:1026400096FD8CC1EFA9F8ADB09709F482C18E2D2B
:102650000E943D11C101B6010E947411FCA9F4FF52
:102660008CCE852D84190E94491187CECE0101960A
:1026700061E070E00E947411E5CF5CA956FFCECFF7
:10268000892F8E5FCBCFB1E0EB2AE0FE54C1B4E0DE
:10269000AB2EB12CAC0CBD1CF60160807180828029
:1026A000938097FC3BC1BAE0BEAB47FC02C05FED34
:1026B000E5227CE2272E312C2C0E3D1E6114710484
:1026C0008104910409F452C09EA9892F90E0A0E0F2
:1026D000B0E088AB99ABAAABBBAB6CE2C62ED12CF9
:1026E000CC0EDD1E6CA67DA68EA69FA62AC050E34A
:1026F000352E360ED6013E926D016CA57DA58EA5B8
:102700009FA528A939A94AA95BA90E94F946B90140
:10271000FA01C901DA013C014D012CA53DA54EA5E8
:102720005FA588A999A9AAA9BBA9281739074A07AB
:102730005B0708F440C0CB01DF018CA79DA7AEA7C3
:10274000BFA76CA57DA58EA59FA528A939A94AA9D3
:102750005BA90E94F9466A3050F247E5342E360EE6
:1027600048E5F41639F65FED3522C4CF442089F4EC
:10277000AE2DB0E0BDABACAB80E090E0442DE42EDC
:10278000E91AE7FCC4C0EE2DC82EDD24C7FCD094A6
:1027900041CF3EA9232F30E040E050E028AB39ABD9
:1027A0004AAB5BAB9ACFA2E0B0E0CA0EDB1E8081E1
:1027B0008C8319821ECF9EA99830D1F0AE2DB0E047
:1027C000BDABACABB9ADBC198B2F9B2F1601D6CFCF
:1027D000E3FE1AC06114710481049104A9F020E49D
:1027E000E22A8F2D30E13EAB1982F82E56015DCFE3
:1027F000EE2DF0E0FDABECABE3FC0AC0F9ADFC194B
:102800008F2F9F2F1601BACF8F2D40E14EABECCF0B
:1028100020E3321609F45CC0F60140E3429389AD2F
:102820008E1B982F1F01AACFF60120803180211422
:10283000310489F4F8E2FC832EE62D8335E73E83EC
:102840008CE68F83888789E289871A86F4E02F2EA9
:10285000312C2C0E3D1E47FC1CC0442D552747FD36
:102860005095C10160E070E00E945D47009719F04B
:10287000821948160CF4842DE2E0AE2EB12CAC0C7B
:10288000BD1C1982982F4E2D50E05DAB4CAB40E043
:1028900076CFF10101900020E9F731978E2F821950
:1028A000EBCF28E02EABA0CF31E0E32A48E04EABDF
:1028B0009BCF82E090E0C80ED91E808191813C01BF
:1028C0008824992490E4E92A88E7A0E1AEAB8CCF74
:1028D00039AD3C19832F932F160150CFEA960FB6CE
:1028E000F894DEBF0FBECDBFCF91DF911F910F9146
:1028F000FF90EF90DF90CF90BF90AF909F908F9020
:102900007F906F905F904F903F902F900895C82ECA
:10291000DD24C7FCD094EE24E0E07CCE909480943B
:1029200070946094611C711C811C911CEDE2E98320
:10293000FAE0FEABBACEA2E0AA2EB12CAC0CBD1CC4
:10294000D6018D919C913C01882477FC8094982C31
:10295000A8CE852D84190E943D1179CEA0E3AA83CB
:10296000FB82CE01029662E070E00E9474116ACE92
:102970008F2D9AE09EAB38CFA1E0EA2ABAE0BEAB39
:1029800033CF2FB7F8943F9A479892E094BD95BD06
:1029900084E687BD16BC90936E001092950B109242
:1029A000940B1092960B1092970B1092980B10921A
:1029B000990B10929A0B10929C0B10929B0B1092F9
:1029C0009D0B1092C4041092C3042FBF78940895F5
:1029D0001F920F920FB60F9211242F933F938F9354
:1029E0009F938091C70481508093C7048F5F61F4E7
:1029F00089E08093C7048091C3049091C404019638
:102A00009093C4048093C3048091C5049091C6043C
:102A1000892BF9F08091C5049091C6040197909399
:102A2000C6048093C5042091C5043091C6048091EA
:102A300005029091060282239323892B89F44798FB
:102A40009F918F913F912F910F900FBE0F901F90EC
:102A500018958FEF9FEF9093060280930502EFCFBA
:102A6000479AEECF2091C3043091C40421503040E6
:102A7000280F391FC90108952091C3043091C4045F
:102A8000821B930B80709078892F08952091C30446
:102A90003091C40421503040280F391F8091C30465
:102AA0009091C404A901481B590BCA018070907809
:102AB0009923A1F30895E8E0F2E080E2819392E0A7
:102AC000E835F907D9F708958F929F92AF92BF9298
:102AD000CF92DF92EF92FF920F931F93CF93DF93EA
:102AE00090E080FF08C02091C804222309F4C1C0EF
:102AF00021502093C8043091070281FF08C0209123
:102B0000C804231709F4BFC22F5F2093C804837041
:102B10009070039711F41092C804E8E0F2E080E2AC
:102B2000819392E0E835F907D9F72091C80432176C
:102B300018F43093C804232F2A3008F07EC081E1B6
:102B40008093C90400D00F920F92EDB7FEB7319673
:102B500081E0ADB7BEB711968C938AEB95E0928376
:102B60008183238314820E9489110F900F900F900C
:102B70000F900F901091C804113009F4C5C01130A6
:102B800008F06CC01092C90400D011E0EDB7FEB798
:102B9000118387EA95E0938382830E94891184E1FF
:102BA0008093C904ADB7BEB711961C93119789E9FC
:102BB00095E013969C938E9312970E94891188E258
:102BC0008093C90400D000D0EDB7FEB73196ADB701
:102BD000BEB711961C938DE895E092838183148291
:102BE000138281E090E09683858388E690E0908769
:102BF00087830E9489118CE38093C904EDB7FEB7E7
:102C000036960FB6F894FEBF0FBEEDBF118382E873
:102C100095E0938382830E9489110F900F900F900B
:102C2000DF91CF911F910F91FF90EF90DF90CF90A8
:102C3000BF90AF909F908F90089580E18093C904DA
:102C400000D00F920F92EDB7FEB7319681E0ADB78D
:102C5000BEB711968C9385EB95E081CF123009F4C5
:102C6000A2C1133059F01150109307021092C804FA
:102C7000D7CF309107023093C8043FCF1092C904D8
:102C800000D011E0EDB7FEB711838CEC93E0938395
:102C900082830E9489110F900F900F9080919D0B5D
:102CA000882309F0F3C184E18093C90400D0ADB753
:102CB000BEB711961C93119787EB93E013969C93E4
:102CC0008E9312970E94891188E28093C904EDB710
:102CD000FEB7118382EA93E0938382830E94891175
:102CE0008CE38093C904ADB7BEB711961C931197BE
:102CF0008DE893E013969C938E9312970E9489110E
:102D00000F900F900F908CCF80916F05882309F45E
:102D100054C280915205823009F4CCC2833009F448
:102D2000BAC2882309F485C21092C90400D00F9258
:102D30000F92EDB7FEB73196ADB7BEB711961C93A3
:102D40008BEE94E09283818380915105838314827A
:102D50000E9489110F900F900F900F900F90E090AC
:102D60004305F0904405009145051091460517FD77
:102D70007FC23BE2C32ED12CC801B70120E836E95F
:102D800048E950E00E941B47B62EA72E982E892EA8
:102D900084E18093C904EDB7FEB73B970FB6F89472
:102DA000FEBF0FBEEDBFCDB7DEB7219681E0ADB758
:102DB000BEB711968C9384ED94E09A838983DC826C
:102DC000CB82C801B70120E836E948E950E00E940B
:102DD0001B47C90137FD5BC29E838D836B2D7A2D06
:102DE000892D982D20E137E240E050E00E941B47FA
:102DF000C90137FD7AC298878F836B2D7A2D892D73
:102E0000982D20E137E240E050E00E941B472AE085
:102E100030E040E050E00E941B47C90137FD61C22D
:102E20009A8789870E948911E0904705F0904805AC
:102E30000091490510914A05EDB7FEB73B960FB6D4
:102E4000F894FEBF0FBEEDBF17FD19C29BE2C92E5D
:102E5000D12CC801B70120E836E948E950E00E94CA
:102E60001B47B62EA72E982E892E88E28093C90480
:102E70008DB79EB70B970FB6F8949EBF0FBE8DBF50
:102E8000CDB7DEB7219681E0ADB7BEB711968C9372
:102E90008DEB94E09A838983DC82CB82C801B701F1
:102EA00020E836E948E950E00E941B47C90137FD98
:102EB00014C29E838D836B2D7A2D892D982D20E150
:102EC00037E240E050E00E941B47C90137FD35C2A0
:102ED00098878F836B2D7A2D892D982D20E137E2ED
:102EE00040E050E00E941B472AE030E040E050E024
:102EF0000E941B47C90137FD1CC29A8789870E941F
:102F00008911E0904B05F0904C0500914D05109112
:102F10004E05EDB7FEB73B960FB6F894FEBF0FBE59
:102F2000EDBF17FDA9C12BE230E08CE38093C9040B
:102F30008DB79EB709970FB6F8949EBF0FBE8DBF91
:102F4000CDB7DEB7219681E0ADB7BEB711968C93B1
:102F500089EA94E09A8389833C832B83C801B70173
:102F600028EE33E040E050E00E941B47C90137FDE6
:102F7000B0C19E838D83C801B70128EE33E040E0E5
:102F800050E00E941B47CB0177FD7DC198878F835E
:102F90000E948911EDB7FEB739960FB6F894FEBFBF
:102FA0000FBEEDBF3DCE80916F05882309F4C8C0E8
:102FB00080915205823009F4ACC1833009F499C183
:102FC000882309F445C11092C90400D00F920F92D2
:102FD000EDB7FEB7319681E0ADB7BEB711968C93D1
:102FE00082E194E0928381838091510583831482EE
:102FF0000E94891184E18093C904EDB7FEB7319630
:1030000011E0ADB7BEB711961C938FEF93E092839A
:1030100081838091570590915805948383830E9402
:10302000891188E28093C904EDB7FEB73196ADB738
:10303000BEB711961C938CEE93E0928381838091AE
:103040005B0590915C05948383830E9489118CE3D6
:103050008093C904EDB7FEB73196ADB7BEB71196F0
:103060001C9389ED93E09283818380915F05909119
:103070006005948383830E9489110F900F900F90B5
:103080000F900F90CDCD1092C80441CD84E1809374
:10309000C90400D0EDB7FEB7118388E793E09383AE
:1030A00082830E94891188E28093C90400D000D0F5
:1030B000EDB7FEB73196ADB7BEB711961C9383E658
:1030C00093E0928381838091960B83831482809115
:1030D000970B858316828091940B9091950B908726
:1030E00087830E9489118CE38093C9040F920F9209
:1030F000EDB7FEB73196ADB7BEB711961C9389E414
:1031000093E0928381838091980B838314828091D2
:10311000990B8583168280919A0B87831086809104
:103120009B0B90919C0B928781870E948911EDB730
:10313000FEB73B960FB6F894FEBF0FBEEDBF70CD45
:103140001092C90400D011E0ADB7BEB711961C9320
:1031500011978DE994E013969C938E9312970E9499
:10316000891184E18093C904EDB7FEB7118388E823
:1031700094E0938382830E94891188E28093C9043A
:10318000ADB7BEB711961C93119783E794E01396E1
:103190009C938E9312970E9489118CE38093C904AB
:1031A000EDB7FEB711838EE594E0938382830E948E
:1031B00089110F900F900F9033CD1092C90400D059
:1031C000ADB7BEB711961C93119786E795E013969D
:1031D0009C938E9312970E94891184E18093C90475
:1031E000EDB7FEB7118381E695E0938382830E9459
:1031F000891188E28093C904ADB7BEB711961C93BC
:1032000011978CE495E013969C938E9312970E94ED
:1032100089118CE38093C904EDB7FEB7118387E36E
:1032200095E0938382830E9489110F900F900F90F5
:10323000F7CC1092C90400D00F920F92EDB7FEB7F1
:103240003196ADB7BEB711961C9384E295E07ACD66
:103250001092C90400D00F920F92EDB7FEB73196CD
:1032600081E0ADB7BEB711968C938BE494E0BACEF3
:103270002DE2C22ED12C80CD2DE230E056CE8DE253
:10328000C82ED12CE6CD909581959F4F7FCE9095FD
:1032900081959F4FA1CD1092C90400D00F920F923B
:1032A000EDB7FEB73196ADB7BEB711961C938EEF52
:1032B00094E048CD1092C90400D00F920F92EDB760
:1032C000FEB73196ADB7BEB711961C9381E195E07C
:1032D00039CD909581959F4F4CCE909581959F4F7C
:1032E000E8CD909581959F4F9BCD909581959F4F6F
:1032F00082CD1092C90400D00F920F92EDB7FEB7A5
:10330000319681E0ADB7BEB711968C9385E294E01B
:1033100069CE1092C90400D00F920F92EDB7FEB79C
:10332000319681E0ADB7BEB711968C9388E394E0F7
:1033300059CE909581959F4FE0CD909581959F4F67
:10334000C7CD209A299A219A289A08959C0160E96C
:1033500071E00E94D246892B81F0C9018370907080
:10336000892B19F040E0842F089540E0C90164E6FC
:1033700070E00E94D246892B09F041E0842F089525
:103380002F923F924F925F926F927F928F929F9275
:10339000AF92BF92CF92DF92EF92FF920F931F9363
:1033A000DF93CF93CDB7DEB72E970FB6F894DEBF7D
:1033B0000FBECDBF9E878D878091FE04882321F0AC
:1033C0008091D50482FD1DC0AD85BE8519961C92E5
:1033D0002E960FB6F894DEBF0FBECDBFCF91DF9112
:1033E0001F910F91FF90EF90DF90CF90BF90AF9023
:1033F0009F908F907F906F905F904F903F902F9015
:1034000008958091D50483FFDFCF6091CA04709145
:10341000CB048091CC049091CD0428EE33E040E0C1
:1034200050E00E94F94679018A018091D20490917E
:10343000D3049C01442737FD4095542F6FE0E616D6
:10344000F1040105110508F04AC121503040404007
:103450005040D801C7018F58954CA64FBF4F898364
:103460009A83AB83BC8349015A01880C991CAA1C1E
:10347000BB1C880C991CAA1CBB1C880C991CAA1C80
:10348000BB1C821A930AA40AB50A69817A818B81CE
:103490009C8120E831E541E050E00E94F946820E2F
:1034A000931EA41EB51E83E897E0ABE0B0E0880E43
:1034B000991EAA1EBB1EC501B40121EB3AE342E0EE
:1034C00050E00E94F9466D837E838F8398872CEAB3
:1034D0003EE840E050E00E94F94669877A878B8792
:1034E0009C8725EB35E040E050E00E94F9466B01F7
:1034F0007C0197E4C91694E0D90690E0E90690E0D3
:10350000F90608F4D5C023E0622E712C97E4292E29
:1035100094E0392E412C512CC501B40121EB3AE342
:1035200042E050E00E94F94680E991E0289F800146
:10353000299F100D389F100D11240F5F1F4F6D81B3
:103540007E818F8198852CEA3EE840E050E00E9421
:10355000F94684E690E0FC012E9FC0012F9F900D5C
:103560003E9F900D1124080F191F69857A858B8560
:103570009C8525EB35E040E050E00E94F946220FA3
:10358000331F220F331F020F131F060D171DAD85AA
:10359000BE850D931C930894C11CD11CE11CF11C29
:1035A000C218D308E408F508C8010E94A6198823A8
:1035B00009F47BC088E592E0FC0120E080819181E4
:1035C000A281B3818C159D05AE05BF0508F067C0CB
:1035D00084819581A681B7818C159D05AE05BF05B7
:1035E00008F45DC02F5FAD85BE8512962C93808157
:1035F000BC2DB81BED85FE85B38369817A818B81F3
:103600009C8120E831E541E050E00E94F946162F08
:10361000072FF82EE92E20E13EE040E050E00E9426
:10362000F946AD85BE8514962C93612F702F8F2D92
:103630009E2D20E13EE040E050E00E94F946162F2A
:10364000072FF82EE92E2CE330E040E050E00E94F6
:10365000F946ED85FE852583612F702F8F2D9E2DD8
:103660002CE330E040E050E00E94F946AD85BE8595
:1036700016966C936091CA047091CB048091CC042F
:103680009091CD0428EE33E040E050E00E94F946EE
:10369000ED85FE857087678381E0818799CE2F5FF6
:1036A00034962C3009F08ACFA8CF8CE892E084CFF2
:1036B000C701B6012DE631E040E050E00E94F94636
:1036C00039018DE691E0DC012A9FC0012B9F900D0E
:1036D0003A9F900D11241C01442455241DCFC8018C
:1036E000B7016F5070408040904069837A838B832C
:1036F0009C83B9CE1F9380917B0590917C050E949D
:103700003C158823D9F010927D0584E690E00E9454
:10371000321590937C0580937B0580917D058230E6
:1037200058F08091FE04813079F082E08093FE04AD
:1037300080931B05809340051F91089580917D051E
:103740008F5F80937D05E1CF80911B05813069F704
:1037500010914005113049F7809141059091420543
:103760000196909342058093410580916F058130C9
:10377000E1F210926F058091D504809350058091FD
:10378000F904809351058091D4048093520580916F
:10379000E2049091E304A091E404B091E5048093E5
:1037A000530590935405A0935505B0935605809109
:1037B000F2049091F304A091F404B091F504809385
:1037C0006B0590936C05A0936D05B0936E0584E92D
:1037D0009BE00E94C0198091030590910405A0917F
:1037E0000505B09106058093430590934405A09389
:1037F0004505B09346058091070590910805A09175
:103800000905B0910A058093470590934805A09358
:103810004905B0934A0580910F0590911005A0913C
:103820001105B091120580934B0590934C05A09320
:103830004D05B0934E0510934F058091240590914E
:103840002505A0912605B091270580935B059093EF
:103850005C05A0935D05B0935E0580912005909175
:103860002105A0912205B0912305809357059093DF
:103870005805A0935905B0935A0580912805909159
:103880002905A0912A05B0912B05B095A09590959A
:1038900081959F4FAF4FBF4F80935F059093600519
:1038A000A0936105B0936205809130059091310538
:1038B000A0913205B0913305809363059093640520
:1038C000A0936505B0936605809134059091350508
:1038D000A0913605B09137058093670590936805F0
:1038E000A0936905B0936A0510936F051ECF2F92C0
:1038F0003F924F925F926F927F928F929F92AF9280
:10390000BF92CF92DF92EF92FF920F931F93DF93BC
:10391000CF930F92CDB7DEB77E010894E11CF11C66
:103920000AEC802E04E0902E15E3612E712C680CB9
:10393000791CB4E34B2E512C480C591CACE1CA2E17
:10394000A5E0DA2EF5E22F2E312C2C0C3D1CEFEFEA
:10395000AE2EE4E0BE2E81EA97E0B7010E943E461B
:103960008823D1F080917A05843009F4CDC0853068
:1039700038F5813009F4DBC0813008F047C0898117
:10398000853B09F4E0C010927A0581EA97E0B7011F
:103990000E943E46882331F70F90CF91DF911F910F
:1039A0000F91FF90EF90DF90CF90BF90AF909F90DE
:1039B0008F907F906F905F904F903F902F900895E1
:1039C000863009F474C0863008F04AC02981122F6D
:1039D00000E08091780590917905800F911F909378
:1039E00079058093780590917705920F90937705EC
:1039F00080917605890F80937605E0917005F091AE
:103A00007105108296E090937A05A5CF823009F473
:103A100046C0833009F0B7CF8981863009F497C05A
:103A2000823109F4A1C0823009F0ADCFB0927505A2
:103A3000A09274052CE135E0309373052093720554
:103A40002BE135E0309371052093700534E030931D
:103A50007A058F5F809377058F5F809376057BCFA4
:103A6000873079F0883009F08ECF99818091760582
:103A7000981709F488C0E0917005F09171051082E3
:103A800082CF998180917705981709F458C0E09109
:103A90007005F0917105108210927A055CCF8981D2
:103AA000813009F070CF83E080937A0554CFE091A4
:103AB0007405F09175058091720590917305E81772
:103AC000F90708F060CF89818193F0937505E09341
:103AD0007405998180917705980F9093770580916F
:103AE0007605890F80937605809178059091790508
:103AF00001979093790580937805892B09F02BCF56
:103B000027E020937A0527CF89818093780510924A
:103B1000790590917705980F9093770580917605B8
:103B2000890F8093760585E080937A0514CF89818B
:103B3000823609F028CF32E030937A050CCF38E096
:103B400030937A0508CF21E020937A0504CF909234
:103B5000750580927405709273056092720550929B
:103B600071054092700572CFD0927505C0927405B0
:103B7000309273052092720520E435E03093710590
:103B80002093700563CFE0917005F091710581E09D
:103B900080830E947A1BF7CE00D0EDB7FEB711826A
:103BA00082EC95E0938382830E9489111092FE0437
:103BB00010921B051092400510926F05EDB7FEB7ED
:103BC00011828FEB95E0938382830E9489110F907D
:103BD0000F900F9008951F920F920FB60F9211241D
:103BE0002F938F939F9380917E05282F2F5F209393
:103BF0007E05833009F494C08430F8F0853009F4F0
:103C00005BC0853058F1863009F472C0873009F402
:103C10005FC010927F0510927E0581E08093C00204
:103C200080917C00807E80937C009F918F912F916A
:103C30000F900FBE0F901F901895813009F464C04B
:103C4000823070F180917800909179009093A10B6F
:103C50008093A00B83E080937F050BC08091780058
:103C6000909179009093A90B8093A80B85E08093A5
:103C70007F0580917C00807E90917F05892B8093C9
:103C80007C00222391F280917A00886C80937A00E4
:103C90009F918F912F910F900FBE0F901F901895AD
:103CA00080917800909179009093AD0B8093AC0B4C
:103CB00081E080937F05DDCF80917800909179003D
:103CC00090939F0B80939E0B86E080937F05D1CFCE
:103CD00080917800909179009093A70B8093A60B28
:103CE00010927F0510927E0581E08093C00298CFEC
:103CF00080917800909179009093A50B8093A40B0C
:103D000087E080937F05B5CF80917800909179000E
:103D10009093AB0B8093AA0B82E080937F05A9CF91
:103D200080917800909179009093A30B8093A20BDF
:103D300084E080937F059DCF1F931FB700D0EDB720
:103D4000FEB7118284ED95E0938382830E948911EE
:103D5000F89411B812B88FEF80937E00ECE7F0E092
:103D600080818F7180838081807E8083AAE7B0E02C
:103D700087E08C93EBE7F0E08081887F80838C91F3
:103D8000886C8C931FBF7894EDB7FEB7118281EDDC
:103D900095E0938382830E9489110F900F900F907A
:103DA0001F9108951F9380918005909181050E9435
:103DB0003C158823D1F036990AC080918205982F4E
:103DC0009F5F909382058823A1F411E003C01092B5
:103DD000820510E082E390E00E9432159093810505
:103DE00080938005812F1F91089510E0812F1F91EE
:103DF00008959A3071F787E08093820511E0EACF49
:103E000000D0EDB7FEB7118286EE95E093838283F2
:103E10000E948911469A3E980F900F900F9082E36E
:103E200090E00E943215909381058093800500D028
:103E3000EDB7FEB7118283EE95E0938382830E94F3
:103E400089110F900F900F900895EF92FF920F93AA
:103E50001F93CF93DF93EC017A018B01411551053C
:103E60006105710559F140E050E060E070E0E0E08C
:103E7000F0E03E2F2227EF2FFF27DE01A40FB51F12
:103E80008C9190E0E827F927EE0FFF1FE850FA4FDA
:103E90000190F081E02DE227F3274F5F5F4F6F4FD6
:103EA0007F4F4E155F056007710718F3CF01DF9153
:103EB000CF911F910F91FF90EF900895E0E0F0E017
:103EC000F5CF84B1806B84B926982C9A82E58CBD9D
:103ED0008DB581608DBD2A9A229808952C9A1CBCBC
:103EE0001DBC08958FEF8EBD0DB407FEFDCF8EB5BE
:103EF00008958EBD0DB407FEFDCF08952C9A089548
:103F00002C9808951F93CF93DF93EC014115510531
:103F10006105710519F130E020E019E0FE01E30FC1
:103F2000F11DE08190E001C0EE0F220F822F8E275D
:103F300087FD21279F5F9830B9F73F5F832F90E07F
:103F4000A0E0B0E084179507A607B70738F3822FE3
:103F5000880F8160DF91CF911F91089581E0FACFA2
:103F600000D0EDB7FEB711828AE298E09383828396
:103F70000E9489110F900F900F900E946E1F109257
:103F8000AE0B1092B00B1092B10B1092B20B1092BC
:103F9000B30B1092AF0B00D0EDB7FEB7118287E2E2
:103FA00098E0938382830E9489110F900F900F9065
:103FB00080E00895CF92DF92EF92FF920F931F93CC
:103FC000DF93CF9300D000D0CDB7DEB76C0100D027
:103FD0000F920F92EDB7FEB73196ADB7BEB71196FF
:103FE0001C928FE39AE092838183D6018C91838324
:103FF00014820E948911F601818192819A838983BA
:104000001B820DB71EB70F5F1F4FADB7BEB711961E
:104010001C9288E29AE0F801928381837E010894E1
:10402000E11CF11CF482E3820E948911D701F601A0
:10403000339685E001900D928150E1F71E82D80100
:104040001C9283E19AE012969C938E93119714969A
:10405000FC92EE9213970E948911F60120850F922F
:104060000F92EDB7FEB73196ADB7BEB711961C9261
:104070008BEF99E092838183822F82958F70838367
:10408000148230E02F703070368325830E948911AE
:104090000F900F900F900F90EDB7FEB711828CEE3E
:1040A00099E0938382830E9489110F920F92EDB75A
:1040B000FEB73196ADB7BEB711961C9207EE19E068
:1040C00012830183D60119968C91838314820E94F6
:1040D0008911EDB7FEB73196ADB7BEB711961C92F8
:1040E00012830183D6011A968C91838314820E94D5
:1040F0008911EDB7FEB73196ADB7BEB711961C92D8
:1041000012830183D6011B968C91838314820E94B3
:104110008911EDB7FEB73196ADB7BEB711961C92B7
:1041200012830183D6011C968C91838314820E9492
:1041300089110F900F90EDB7FEB7118284EE99E0D0
:10414000938382830E948911D6011E962C9100D000
:104150000F92EDB7FEB73196ADB7BEB711961C9270
:1041600089EC99E092838183822F90E08F70907028
:1041700094838383D6011D968C9190E082959295CD
:10418000907F9827807F982722952F7030E0822B90
:10419000932B8053984F968385830E948911EDB7A6
:1041A000FEB737960FB6F894FEBF0FBEEDBF26964A
:1041B0000FB6F894DEBF0FBECDBFCF91DF911F9138
:1041C0000F91FF90EF90DF90CF9008950F931F9382
:1041D000CF93DF938C010E94801FC8010E9432158B
:1041E000EC010E94721F082FCE010E943C1588230B
:1041F00011F40F3FB1F7802FDF91CF911F910F91F5
:104200000895CF92DF92EF92FF920F931F93DF9367
:10421000CF9300D000D0CDB7DEB780648983872FDD
:104220009927AA27BB278A836B835C834D838E01E2
:104230000F5F1F4FC80145E050E060E070E00E9452
:10424000821F8E830E947E1F8FEF0E94791F0E9423
:10425000801F84EF91E00E94E62057E0C52ED12C0C
:10426000CC0EDD1E4AE0E42EF12CF80181918F0185
:104270000E94791FC7010197F1F70C151D05A9F7D9
:104280000E94721F8F3F61F401E010E00E94721FD4
:104290000F5F1F4FF1E0063F1F0711F08F3FB1F393
:1042A00026960FB6F894DEBF0FBECDBFCF91DF913B
:1042B0001F910F91FF90EF90DF90CF900895EF92B4
:1042C000FF920F931F93CF93DF938B019C017A0191
:1042D000F9E0000F111F221F331FFA95D1F788E173
:1042E000B901A8010E940121882309F071C0C0E032
:1042F000D0E00E94721F2196C431D105D1F7C701C9
:1043000040E052E060E070E00E94251F182F092F66
:104310008EEF0E94791FC0E0D0E0F701EC0FFD1F87
:1043200080810E94791F219682E0C030D807A9F7CA
:10433000802F0E94791F812F0E94791F0E94721F77
:10434000C1E0D0E008C00E94721F91E0C53FD907CC
:1043500009F44EC02196282F30E0C9018171907078
:10436000019789F7C9018F7190708B309105B1F178
:104370008D31910509F446C00597A1F10CE04CE0A0
:1043800050E0ADB7BEB717970FB6F894BEBF0FBEDB
:10439000ADBFEDB7FEB7319611961C9288EF97E04E
:1043A0009283818354834383368325830E948911BA
:1043B0008DB79EB707960FB6F8949EBF0FBE8DBF00
:1043C000802FDF91CF911F910F91FF90EF90089573
:1043D000282F30E004E044E050E0D3CF08E048E08C
:1043E00050E0CFCF80ED97E00E94E6208F3F71F044
:1043F000282F30E007E047E050E0C3CF0E94721F53
:10440000212F30E009E049E050E0BBCF8DE040E0F3
:1044100050E060E070E00E940121182F882341F0F5
:104420000E94721F212F30E004E044E050E0A9CF49
:104430000E94721F182F882309F700E0C1CFCF9286
:10444000DF92EF92FF920F931F93CF93DF93690157
:104450000E940121882369F50E94721F282F807F06
:1044600009F44DC02E3FC1F7E114F1040105110517
:1044700089F0C0E0D0E00E94721FF601EC0FFD1F32
:1044800080832196CE01A0E0B0E08E159F05A007A5
:10449000B10788F30E94721F0E94721F10E0812FE3
:1044A000DF91CF911F910F91FF90EF90DF90CF9010
:1044B0000895282F14E044E050E08DB79EB7079789
:1044C0000FB6F8949EBF0FBE8DBFEDB7FEB7319605
:1044D000ADB7BEB711961C9289E59AE092838183AD
:1044E00054834383258316820E9489118DB79EB71A
:1044F00007960FB6F8949EBF0FBE8DBFD0CF1AE0BF
:104500004AE050E0DACFEF92FF920F931F937B01C6
:104510008C019A01B9E0EE0CFF1C001F111FBA9527
:10452000D1F781E1B801A701E12CA2E0FA2E012D1B
:10453000112D0E941F221F910F91FF90EF9008955F
:10454000EF92FF920F931F939C0189E040E050E0AF
:1045500060E070E090E1E92EF12C012D112D0E9418
:104560001F221F910F91FF90EF900895EF92FF92FD
:104570000F931F939C018AE040E050E060E070E000
:10458000E0E1EE2EF12C012D112D0E941F221F9132
:104590000F91FF90EF900895DF92EF92FF920F93AB
:1045A0001F93D82E7A018B0187E340E050E060E052
:1045B00070E00E94012187FD05C08D2DB801A70183
:1045C0000E9401211F910F91FF90EF90DF900895BD
:1045D000CF92DF92EF92FF920F931F93DF93CF93CF
:1045E00000D000D0CDB7DEB71A9999C000D0ADB7D2
:1045F000BEB711961C9211978AEB99E013969C9383
:104600008E9312970E9489110F900F900F900E9425
:10461000611F00D0EDB7FEB7118287EB99E093835D
:1046200082830E948911ADB7BEB711961C92119773
:1046300088EA99E013969C938E9312970E948911B1
:104640001092AE0B0F900F900F900E947E1F00E013
:1046500010E08FEF0E94791F0F5F1F4F0F30110581
:10466000C1F780E040E050E060E070E00E9401218E
:104670008983813099F001E010E080E040E050E073
:1046800060E070E00E9401210F5F1F4FB1E0063F24
:104690001B0709F40AC1813081F7898388E04AEA5F
:1046A00051E060E070E00E940121282F87FD9CC04E
:1046B000898382FF5AC081E08093AF0B8AE340E098
:1046C00050E060E070E00E940121282F87FDE0C0EB
:1046D00082FDA3C089838E010E5F1F4FF6E0EF2E8F
:1046E000F12CEC0EFD1E0E94721FD8018D938D01DE
:1046F000AE15BF05C1F78B818073803309F49CC070
:1047000000D0EDB7FEB711828AE099E093838283EF
:104710000E94891115E00F900F900F904EC00E94DB
:104720006E1F1092AE0B00D0ADB7BEB711961C92A3
:1047300011978BE398E013969C938E9312970E94A7
:10474000891111E00F900F900F90812F26960FB6D0
:10475000F894DEBF0FBECDBFCF91DF911F910F91B7
:10476000FF90EF90DF90CF90089582E08093AF0BA1
:104770008E010E5F1F4FA6E0EA2EF12CEC0EFD1EFF
:104780000E94721FF80181938F01EE15FF05C1F79A
:104790008D818A3AA9F000D0ADB7BEB711961C92B0
:1047A00011978BE699E013969C938E9312970E9433
:1047B000891114E00F900F900F900E947E1FC5CFBB
:1047C0008C818F70813009F479CF00D0EDB7FEB7BE
:1047D00011828BE499E0938382830E94891115E012
:1047E0000F900F900F90E9CF00D00F920F92EDB77E
:1047F000FEB73196ADB7BEB711961C9288E899E026
:1048000092838183238314820E94891114E00F9084
:104810000F900F900F900F90D0CF00D0EDB7FEB754
:10482000118288E299E0938382830E94891116E0C5
:104830000F900F900F90C1CF80ED97E00E9432153E
:104840007C0189E240E050E060E070E00E94CC2210
:10485000182F87FD51C0C7010E943C15882309F01D
:104860007DC010FDEECF112379F100D0ADB7BEB7FA
:1048700011961C9211978CED98E013969C938E9351
:1048800012970E94891113E00F900F900F9095CF0F
:1048900000D00F920F92EDB7FEB73196ADB7BEB70D
:1048A00011961C9288E399E0ABCF00D0EDB7FEB72C
:1048B00011828AE999E0938382830E94891112E030
:1048C0000F900F900F9079CF80E140E052E060E0D0
:1048D00070E00E940121882341F100D0EDB7FEB7BE
:1048E000118289EB98E0938382830E9489111BE0F7
:1048F0000F900F900F9061CF00D00F920F92EDB7F5
:10490000FEB73196ADB7BEB711961C9286EF98E010
:1049100092838183138314820E94891114E00F9083
:104920000F900F900F900F9048CF84EB9BE00E9468
:10493000B622182F882309F100D0ADB7BEB7119663
:104940001C92119784EA98E013969C938E93129789
:104950000E9489110F900F900F902FCF00D0EDB7CC
:10496000FEB7118288EE98E0938382830E948911BA
:1049700013E00F900F900F9020CF84EC9BE00E94EB
:10498000A022182F882371F000D0EDB7FEB7118256
:1049900081E998E0938382830E9489110F900F90A0
:1049A0000F900BCF00D0ADB7BEB711961C921197E8
:1049B0008CE898E013969C938E9312970E9489112D
:1049C0008091C40B0F900F900F90829586958695DD
:1049D000837009F487C0813009F45CC01092B00B79
:1049E0001092B10B1092B20B1092B30B8091AF0BDF
:1049F0008130F1F1823069F400D0EDB7FEB7118259
:104A000081E698E0938382830E9489110F900F9032
:104A10000F908091B00B9091B10BA091B20BB0911F
:104A2000B30B00D00F920F924DB75EB74F5F5F4F41
:104A3000EDB7FEB711822CE438E0FA01328321830E
:104A400004E1B695A795979587950A95D1F7948334
:104A500083830E9489110F900F900F900F900F90F9
:104A600084EB9BE00E94DA1F81E08093AE0BA5CE21
:104A700000D0ADB7BEB711961C9211978BE798E0A6
:104A800013969C938E9312970E9489110F900F900A
:104A90000F90BFCF8091CB0B8091CC0B2091CD0B91
:104AA00090E0A0E0B0E0BA2FA92F982F882730E03F
:104AB00040E050E0822B932BA42BB52B23E1880FF1
:104AC000991FAA1FBB1F2A95D1F780509040A84F6D
:104AD000BF4F8093B00B9093B10BA093B20BB093E8
:104AE000B30B84CF6091C90B8091CA0BC82EDD2413
:104AF000EE24FF2483E090E0A0E0B0E0C822D922B9
:104B0000EA22FB22EAE0CC0CDD1CEE1CFF1CEA953D
:104B1000D1F72091CB0B8091CC0B82958695869511
:104B2000837090E0A0E0B0E030E040E050E0220F81
:104B3000331F441F551F220F331F441F551F822B45
:104B4000932BA42BB52B2091CD0B4091CE0B237032
:104B5000220F441F4427441F242B8C299D29AE2952
:104B6000BF290196A11DB11D30E02E5F3F4F04C04B
:104B7000880F991FAA1FBB1F2A95D2F76F7004C018
:104B8000880F991FAA1FBB1F6A95D2F78093B00B9D
:104B90009093B10BA093B20BB093B30B27CFFC0152
:104BA000009709F475C08185882309F471C082815A
:104BB000282F30E040E050E02F703070407050708F
:104BC000A5E1220F331F441F551FAA95D1F78081FD
:104BD00091818C5B9740A0E0B0E079E1880F991F4C
:104BE000AA1FBB1F7A95D1F7282B392B4A2B5B2B99
:104BF000838190E0A0E0B0E08F719070A070B07001
:104C0000DC0199278827282B392B4A2B5B2B8481A1
:104C100090E0A0E0B0E07BE0880F991FAA1FBB1FC7
:104C20007A95D1F7A070B070282B392B4A2B5B2BCB
:104C3000858190E0A0E0B0E08F739070A070B070BC
:104C4000880F991FAA1FBB1F880F991FAA1FBB1F80
:104C5000880F991FAA1FBB1F880F991FAA1FBB1F70
:104C6000880F991FAA1FBB1F282B392B4A2B5B2BA0
:104C70008681869590E0A0E0B0E08F719070A07082
:104C8000B070282B392B4A2B5B2BB901CA01089530
:104C900020E030E040E050E0B901CA010895809181
:104CA0000A0E882361F080912A10882319F18091DF
:104CB0004A12882319F140E050E0CA01089560E0EB
:104CC00070E090E020E232E0829FA001839F500DCF
:104CD000929F500D11244551544F629FF001639FE4
:104CE000F00D729FF00D1124E65FF14F81E080839B
:104CF000CA01089581E061E070E0E3CF82E062E004
:104D000070E0DFCFFC01009761F08BE0EB3EF8072D
:104D100051F08EE0EB30F80731F080E1EB32F8072C
:104D200011F080E00895E15EFD4F1082EF51F240F6
:104D300010821182128213821482158216821782C7
:104D40001086128611861386148615861686178697
:104D5000108A118A128A138AE55EFD4F1082118231
:104D600012821382EB51F240148A158A168A178A2E
:104D7000118E108E128E81E008950F931F93CF93A2
:104D8000DF93EC0120E088818F3209F45DC0DE0101
:104D9000A20FB11D8C91882349F08F3239F02F5F1B
:104DA000DE01A20FB11D8C918823B9F78D011097F8
:104DB000B1F3FB01138620E030E080E2FB01E20F5B
:104DC000F31F80832F5F3F4F2B303105B9F790E001
:104DD00088818F32B9F1392F3F5F40E03150FE01B9
:104DE000E30FF11D3F5FEA17FB07C0F44B3010F5EE
:104DF00020812E3259F1822F81568A31A8F4FB018D
:104E0000E40FF11D205220834F5F3F5F3150FE01C0
:104E1000E30FF11D3F5FEA17FB0740F3C801DF9185
:104E2000CF911F910F910895FB01E40FF11D208395
:104E30004F5FEBCF00E010E0C801DF91CF911F91F1
:104E40000F91089591E0C7CF21E0A1CF493090F7AD
:104E500048E03F5FDBCF9C018091D40B882309F1B0
:104E60002230310528F18091D50B90E0225030405E
:104E7000AC01249FC001259F900D349F900D1124FB
:104E8000A0E0B0E02091E30B3091E40B4091E50B02
:104E90005091E60B280F391F4A1F5B1FB901CA0149
:104EA000089520E030E040E050E0B901CA010895E3
:104EB00080E090E0A0E0B0E0E5CFEF92FF920F93AA
:104EC0001F937B018C018091D40B8823E9F08091A2
:104ED000E30B9091E40BA091E50BB091E60BE81A7F
:104EE000F90A0A0B1B0B2091D50B30E040E050E093
:104EF000C801B7010E94F9462E5F3F4FC9011F91BB
:104F00000F91FF90EF90089520E030E0C9011F91CC
:104F10000F91FF90EF9008958091D40B0895FC01BC
:104F200060E080899189A289B3890196A11DB11D94
:104F3000248535854685578582179307A407B507CD
:104F400008F061E0862F08952F923F925F926F9252
:104F50007F928F929F92AF92BF92CF92DF92EF9209
:104F6000FF920F931F93DF93CF93CDB7DEB7C0505F
:104F7000D2400FB6F894DEBF0FBECDBF9C0180912A
:104F8000D40B882309F484C0C901A0E0B0E0880FE5
:104F9000991FAA1FBB1F7C018D0139E0169507954B
:104FA000F794E7943A95D1F72091DB0B3091DC0B25
:104FB0004091DD0B5091DE0BE20EF31E041F151F16
:104FC0002FEFA22E21E0B22EC12CD12CA822B92283
:104FD000CA22DB226624772443011E010894211C87
:104FE000311C08C08FEF91E0A0E0B0E0A822B92208
:104FF000CA22DB22E614F7040805190551F0C8019E
:10500000B701A1010E948322882309F041C0370122
:105010004801F101EA0DFB1D208131815524C901B0
:1050200002978E5E9F4F10F4552453941182108284
:105030005901CC24DD24AA0CBB1CCC1CDD1C860130
:105040007501B9E016950795F794E794BA95D1F7ED
:105050008091DB0B9091DC0BA091DD0BB091DE0B0E
:10506000E80EF91E0A1F1B1FE614F70408051905B0
:1050700019F4552009F0B6CFC401B301A1010E9473
:105080005F21882329F4552009F0ACCF81E001C0CD
:1050900080E0C050DE4F0FB6F894DEBF0FBECDBF2C
:1050A000CF91DF911F910F91FF90EF90DF90CF9004
:1050B000BF90AF909F908F907F906F905F903F9048
:1050C0002F9008950F931F93CF93DF93CBEEDBE0E8
:1050D00000E010E0C15EDD4F8881CF51D2408130C9
:1050E00081F0C05EDD4F82E1CB34D80799F70E9492
:1050F000B01F1092D40B802FDF91CF911F910F9191
:105100000895CE010E940C29080F191FEACFCF92F3
:10511000DF92EF92FF920F931F93CF93DF93EC01F7
:10512000009761F42FEF3FEFC901DF91CF911F91FD
:105130000F91FF90EF90DF90CF9008958091D40B66
:10514000882381F38B85813611F0873759F789855C
:105150009A85892B09F045C0BBE1CB2EB2E0DB2E4E
:10516000CC0EDD1EABE1EA2EF12CEC0EFD1E6C899F
:105170007D898E899F89F601608371838283938301
:10518000A7010E948322882309F041C0088D198D50
:10519000000F111F02951295107F1027007F102716
:1051A0000E0D1F1D8C859D85AE85BF85F801848FF2
:1051B000958FA68FB78F84E99BE00E94CF25F801D9
:1051C000668B778B808F918FF601608171818281F0
:1051D0009381A7010E945F218823C9F420E030E079
:1051E000A3CFFBE1CF2EF2E0DF2ECC0EDD1EF601C9
:1051F0006081718182819381EBE1EE2EF12CEC0EC6
:10520000FD1EA7010E945F21882309F4B0CF0E94F0
:1052100062282FEF3FEF88CF0F931F93CF93DF9339
:10522000EC01009761F00E9487288C01CE010E945A
:105230008226C801DF91CF911F910F9108950FEF42
:105240001FEFC801DF91CF911F910F9108954F92E9
:105250005F926F927F928F929F92AF92BF92CF9206
:10526000DF92EF92FF920F931F93CF93DF93BC01D6
:105270008091D40B882309F441C061157105F1F1C7
:105280004BE1C42ED12CC60ED71E8824992454017C
:10529000EE24FF2487013BE1632E32E0732E660E7D
:1052A000771E44244A94542C6091DB0B7091DC0BE4
:1052B0008091DD0B9091DE0B680D791D8A1D9B1D81
:1052C000D3016D937D938D939C931397A6010E94B8
:1052D0008322882309F058C0F601C0E0D0E0808125
:1052E0009181892BF9F02196329681E0C030D80760
:1052F000B1F720E030E040E050E02AC040E050E06C
:10530000CA01DF91CF911F910F91FF90EF90DF9035
:10531000CF90BF90AF909F908F907F906F905F9055
:105320004F90089551824082F301608171818281A2
:105330009381A6010E945F21882331F5D801C7011E
:10534000B695A795979587959E01280F391FA901B6
:105350000894811C911CA11CB11C8091D90B9091C7
:10536000DA0BA0E0B0E088169906AA06BB0640F664
:1053700080E092E0A0E0B0E0E80EF91E0A1F1B1FDB
:10538000232B09F491CFBCCF0E94622840E050E06B
:10539000B7CFAF92BF92CF92DF92EF92FF920F936F
:1053A0001F93CF93DF937C018091D40B882321F14D
:1053B000E114F10409F1D70114962D913D914D911D
:1053C0005C9117978091E30B9091E40BA091E50B12
:1053D000B091E60B281739074A075B0768F0809100
:1053E000E70B9091E80BA091E90BB091EA0B8217C3
:1053F0009307A407B50770F4C0E0D0E0CE01DF91B9
:10540000CF911F910F91FF90EF90DF90CF90BF90C1
:10541000AF900895CA01B9010E945D27EC015C01BB
:10542000CC24DD24AA0CBB1CCC1CDD1C9601850100
:1054300059E036952795179507955A95D1F780919C
:10544000DB0B9091DC0BA091DD0BB091DE0B080F14
:10545000191F2A1F3B1FF701E55EFD4F80819181D7
:10546000A281B38180179107A207B30781F000835F
:10547000118322833383A701455E5F4FC901B801C1
:105480000E948322882319F00E946228B7CF8FEFF1
:1054900091E0A0E0B0E0A822B922CA22DB22F70105
:1054A000EA0DFB1DC38DD48D9FEFC83FD90708F0CF
:1054B000A3CF8091D40B882369F420E030E040E052
:1054C00050E0F70124833583468357831086128684
:1054D000118694CFC230D105E0F08091D50B90E0D9
:1054E0002297DC01AC9FC001AD9F900DBC9F900D39
:1054F00011242296A0E0B0E02091E30B3091E40B60
:105500004091E50B5091E60B280F391F4A1F5B1F96
:10551000D8CF80E090E0A0E0B0E0EECFCF92DF9275
:10552000EF92FF920F931F93CF93DF93EC017A01D9
:105530008B018091D40B882309F456C0209709F47D
:1055400053C02115310509F069C040E050E060E02A
:1055500070E0E40EF51E061F171F17FD51C08C8565
:105560009D85AE85BF858E159F05A007B1070CF4FC
:1055700047C088819981AA81BB818C839D83AE833A
:10558000BF8318861A861986188A198A1A8A1B8A6E
:10559000C12C72E0D72E6091D50B288939894A89B0
:1055A0005B892E153F054007510770F52F5F3F4F70
:1055B0004F4F5F4F288B398B4A8B5B8B89859A8540
:1055C00001969A8789878050924038F31A86198607
:1055D00088858F5F8887861700F3CE010E94C929CE
:1055E000892B49F11886D7CF60E070E0CB01DF91BD
:1055F000CF911F910F91FF90EF90DF90CF90089582
:10560000288939894A895B8960E070E0E216F306EF
:105610000407150759F361E070E0E8CF2230310547
:1056200029F0488959896A897B8993CF4C855D85A2
:105630006E857F858ECF888581508887DA86C9867A
:10564000AACFCF92DF92EF92FF920F931F93CF9347
:10565000DF938C018091D40B882361F4CFEFDFEFCF
:10566000CE01DF91CF911F910F91FF90EF90DF90CE
:10567000CF9008950115110589F3F801848595856A
:10568000A685B7850097A105B10541F340895189E9
:10569000628973894F5F5F4F6F4F7F4F481759077C
:1056A0006A077B07D8F6C480D580E680F7808085BE
:1056B000C80ED11CE11CF11CE55EFD4F808191817B
:1056C000A281B3818C159D05AE05BF05B1F0C082E6
:1056D000D182E282F382A801455E5F4FC701B60125
:1056E0000E9483228823C9F5F80140895189628983
:1056F00073894F5F5F4F6F4F7F4FF80181859285B0
:10570000E80FF91F238DC22FD0E0F801408B518B99
:10571000628B738B0196928781878050924008F448
:105720009FCFF8011286118680858F5F80879091C8
:10573000D50B891708F494CFC8010E94C929892B79
:1057400019F0F80110868CCFF80180858150808790
:1057500080E092E09287818783CF0E946228CFEF1A
:10576000DFEF7ECFCF92DF92EF92FF920F931F93E6
:10577000CF93DF93EC018A018091D40B882361F4ED
:10578000C0E0D0E0CE01DF91CF911F910F91FF904B
:10579000EF90DF90CF9008954115510589F3209740
:1057A00089F31616170664F761307105F1F07E0172
:1057B0006B01C8010E94212B2FEF8F3F920781F0D0
:1057C0008A30910551F0F70181937F010894C10857
:1057D000D108F1E0CF16D10461F7F7011082D2CFE2
:1057E000F7011082C0E0D0E0CDCF7E01F6CF4F921E
:1057F0005F926F927F928F929F92AF92BF92CF9261
:10580000DF92EF92FF920F931F93CF93DF93FC01F0
:105810005A016B012801390147018091D40B88237B
:1058200089F1E114F10471F1309761F1011511056D
:105830002105310539F1EF01EE24FF248701A11480
:10584000B104C104D104A1F0C4010E94212B2FEFA7
:105850008F3F920769F580E0E414F504060517050B
:10586000A0F4882391F0A114B104C104D10461F71C
:105870000894E11CF11C011D111D81E0AA24BB2428
:105880006501EACFEE24FF248701B701C801DF914B
:10589000CF911F910F91FF90EF90DF90CF90BF902D
:1058A000AF909F908F907F906F905F904F900895F2
:1058B00089930894A108B108C108D108C0CF2F92DC
:1058C0003F924F925F926F927F928F929F92AF9290
:1058D000BF92CF92DF92EF92FF920F931F93DF93CD
:1058E000CF93CDB7DEB72A970FB6F894DEBF0FBEC1
:1058F000CDBF9C838B836D834E8349018091D40BF4
:10590000882309F41FC12115310509F41BC14B81FE
:105910005C81452B09F416C1D9011D921D921D927F
:105920001C92139754962D913D914D915C915797F0
:10593000211531054105510509F0E8C08091D70BCB
:105940009091D80B880F991F82959295907F9827F8
:10595000807F9827892F992786951C0144245524F8
:105960008091DF0B9091E00BA091E10BB091E20BE5
:10597000F40180839183A283B3830097A105B105CD
:1059800009F446C1A401455E5D4F58874F838BE102
:10599000682E712C680C791CF40180819181A281A0
:1059A000B38184839583A683B7831086128611867C
:1059B0001A821982AA24BB246501D4011496ED90A1
:1059C000FD900D911C911797EA0CFB1C0C1D1D1DE1
:1059D000EF81F885E082F18202831383C801B70169
:1059E000A3010E948322882309F069C17A8669860F
:1059F00060E070E00CC06F5F7F4F49855A85405E64
:105A00005F4F5A8749876031710509F4D9C0A9856C
:105A1000BA859C91992379F3953E69F31B963C9145
:105A20008E818323BD818B1731F7AB81BC81E985E2
:105A3000FA8520E001C090818C91891709F09DC002
:105A40002F5F119631962B30B1F7F401328FA98573
:105A5000BA855A962D913C915B978091D40B8823FF
:105A600009F08FC020E030E040E050E0D4012D93F9
:105A70003D934D935C931397F401248335834683C0
:105A800057831086128611865496ED92FD920D93DF
:105A90001C93579759967C936E935897E985FA858E
:105AA000848D958DA68DB78DF40184879587A68703
:105AB000B78781E011E00894A11CB11CC11CD11C66
:105AC000A214B304C404D50418F4882309F475CFD0
:105AD000012F112399F42091E30B3091E40B4091B5
